:020000040800F2
:1000000090230020490200083F24000887200008B0
:100010003D2400085F1500080D2C000800000000BA
:100020000000000000000000000000009D26000805
:10003000611500080000000041240008612B000841
:1000400063020008630200086302000863020008FC
:1000500063020008630200086302000863020008EC
:1000600063020008630200086302000863020008DC
:1000700063020008630200086302000863020008CC
:1000800063020008630200086302000863020008BC
:1000900063020008630200086302000863020008AC
:1000A000630200086302000863020008630200089C
:1000B000630200086302000863020008630200088C
:1000C000630200086302000863020008630200087C
:1000D000630200086302000863020008630200086C
:1000E000630200086302000863020008630200085C
:1000F000630200086302000863020008630200084C
:10010000630200086302000863020008630200083B
:10011000630200086302000863020008630200082B
:10012000630200086302000863020008630200081B
:10013000630200086302000863020008630200080B
:1001400063020008630200086302000863020008FB
:1001500063020008630200086302000863020008EB
:1001600063020008630200086302000863020008DB
:100170006302000863020008630200080000000038
:10018000630200086302000800F002F800F04CF877
:100190000AA090E8000C82448344AAF10107DA45E2
:1001A00001D100F041F8AFF2090EBAE80F0013F0E8
:1001B000010F18BFFB1A43F001031847F448000071
:1001C00014490000103A24BF78C878C1FAD8520701
:1001D00024BF30C830C144BF04680C6070470000C1
:1001E0000023002400250026103A28BF78C1FBD840
:1001F000520728BF30C148BF0B607047662904F022
:100200005380752900F0CC80002070471FB504F0A2
:1002100046F800F063FC04000020002103F0B2FF68
:10022000E0601FBD10B510BD00F05CFD1146FFF78A
:10023000EDFF03F0B5FD00F07AFD03B4FFF7F2FF28
:1002400003BC00F0BDFD0000094880470948004795
:10025000FEE7FEE7FEE7FEE7FEE7FEE7FEE7FEE776
:10026000FEE7FEE704480549054A064B70470000D3
:10027000FD2B000889010008901D0020902300201C
:10028000901F0020901F002053EA020C00F06980AC
:100290002DE9F04B4FF00006002B1FBFB3FA83F59A
:1002A00003FA05F424FA05F65E4012BF1643B2FACB
:1002B00082F502FA05F4C5F120051EBF22FA05FCFD
:1002C00044EA0C04203556EA044C4FEA144418BFA3
:1002D000641C4FF000084FF00009904271EB030CD2
:1002E00039D3002919BFB1FA81F701FA07F6B0FA3C
:1002F00080F700FA07F6C7F120071EBF20FA07FCB7
:1003000046EA0C062037B6FBF4FCA7EB0507103FC6
:1003100007F01F0BCBF120060CFA0BFB2CFA06F6AC
:1003200044BFB3460026202FA4BF5E464FF0000B0B
:100330005BEA060C08BF4FF0010B19EB0B09ABFB96
:10034000027C48EB0608C01B06FB02CC0BFB03CC6F
:1003500071EB0C01C1E70B46024641464846BDE839
:10036000F08B13B54FF000004FF00001AFF30080A9
:10037000BDE81C40704700000FB41CB5074B06AA2F
:100380007B4469460090059800F08FFB0020694689
:1003900000F09EFB1CBC5DF814FB00004D07000044
:1003A0002DE9F0410646002410687529314616A54E
:1003B00010D0AFF30080002802DA404213A507E016
:1003C00031688A0701D512A502E0490704D511A5B5
:1003D000012401E0AFF3008000210A2206F1240786
:1003E00009E0B0FBF2FCB0FBF2F302FB1C00303082
:1003F00078541846491C0028F3D123462A46304633
:10040000BDE8F04100F0E3B8000000002D0000005E
:100410002B000000200000002DE9F0474FF0000AFB
:1004200089460446C0F820A02046E1688847002895
:1004300076D0252806D0D4E901219047206A401CB7
:100440002062F1E7E168204600258847C4F81CA037
:1004500006460027C4F818A02A2E09D0304602F01C
:1004600069FF38B304EB8708303EC8F8186019E01C
:1004700059F8041B204604EB87029161E168884724
:10048000012F064618D1E069002820DA25F0200562
:100490001DE0D8F8180000EB800006EB4000303873
:1004A000C8F818002046E1688847064602F042FF77
:1004B0000028EED1012F0AD02E2E08D12046E16867
:1004C00088477F1C0646022F45F02005C4DBA06943
:1004D000002803DA404245F00105A061E80701D099
:1004E00025F01005B6B1A6F14100192802D8203632
:1004F00045F400654A463146204625604D46FFF7E3
:100500007DFE58B1012806D0ED1D25F0070000F151
:10051000080989E704E005F1040985E730468AE720
:10052000206ABDE8F08710B5431C02E010F8011BFB
:1005300071B18107FAD14FF0013202C88C1A8C4395
:1005400014EAC211F9D0C01A0A0603D0C01E10BDA9
:10055000C01A10BD0A0401D0801E10BD0902FCD0D3
:10056000401E10BD4FF0000200B51346944696465B
:10057000203922BFA0E80C50A0E80C50B1F12001B6
:10058000BFF4F7AF090728BFA0E80C5048BF0CC064
:100590005DF804EB890028BF40F8042B08BF7047C2
:1005A00048BF20F8022B11F0804F18BF00F8012B34
:1005B000704770477047704710B500F093FA0068B5
:1005C00010BD10B5044600F08DFA046010BD2DE991
:1005D000F0470D4699469246044600F1240801680A
:1005E000880604D5E06921F01001216000E00120B7
:1005F000A84201DD471B00E00027A1697A1902EB40
:100600000900081AA0612078C00602D42046AFF382
:100610000080002608E0D4E901211AF8060090477E
:10062000206A401C761C20624E45F4DB2078C00610
:100630000AD52046AFF3008006E0D4E9012130203E
:100640009047206A401C2062381EA7F10107F4DCA5
:1006500007E0D4E9012118F805009047206A401C02
:100660002062281EA5F10105F3DC2046AFF30080CF
:100670002078000602D50220BDE8F0870120FBE7C4
:1006800070472DE9FF4F0C461E464FF0FF378BB0E9
:10069000D2E90001DDF860800A908A46C1F30A556C
:1006A00005B93D46002108464FF00000BAF1000FA1
:1006B00000F4400005DA00EB80004FF4400101EA4D
:1006C00050004FEA9059B9F1010F00DDB9460A9880
:1006D00050EA4A000ED044F61050A5F2FF354543CB
:1006E0002F14B8F1000F1ED07542291E1EDDC9F16E
:1006F00000021CE0B8F1010F4FF0000001D03021E2
:1007000003E0F24305E02154401CB042FBDB3046DD
:100710000022002121540B99C1F80880C1E9002072
:100720000FB0BDE8F08FBD1B6D1CDEE74A4600DA56
:10073000694206A800F060FA06AB93E8070003AB35
:1007400083E8070050460A9900F041FB8DE8070056
:10075000A0F500501F3800900398002D0ADD42F2EA
:100760001F014A460844002303A90390684600F08D
:10077000AAFD09E0A0F500504A461F38002303A94E
:100780000390684600F0B4FD8DE807000004000CFB
:1007900003D04FF0FF30410800E01046B8F1000FE1
:1007A00003D00022009215461EE0751E05D400F00D
:1007B0009DF9303262556D1EF9D5B34601220843CA
:1007C00002D000227F1C04E02078302801D10022D2
:1007D0007F1E002A099784D01DE0112D07DA00F052
:1007E00085F9303262556D1C50EA0102F5D108439B
:1007F00002D00098C8B10EE00021681E05E0235C1D
:10080000625C63542254401E491C8142F7DBAB46B4
:10081000A81B401E0990002004F80B000B98099AB1
:10082000C0F80880C0E9002B7AE711264FF00008D5
:1008300057E72DE9F04F88460446D21D22F0070104
:1008400091B0D1E90001CDE90A0102F0E0F90246D8
:100850000B98C00F01D02D2007E02068810701D53B
:100860002B2002E0202101EAC000032A099001D0D8
:10087000072A05DB03464146204600F07DF90BE1DF
:100880002078800601D5E06900E00620B8F1650F08
:10089000814606D0B8F1660F18D0B8F1670F70D155
:1008A00031E00020B9F1110F009001DB112301E0CC
:1008B00009F101030AAA01A90CA8FFF7E2FEDDE98C
:1008C0000C70002609F10105834647E001204B46E4
:1008D00000904FF000470AAA01A90CA8FFF7D1FE2B
:1008E000DDE90DB00C995D46002610B909F1010053
:1008F0000D18B9EB050003D4C0F1FF3609F101056D
:10090000A5EB09002BE0B9F1010F01DA4FF0010965
:100910000020B9F1110F0090484601DD112300E0DD
:1009200003460AAA01A90CA8FFF7ABFEDDE90C708B
:100930004D4600268346207800070AD4AB4500DAEE
:100940005D4601A8012D04DD411911F8011C302973
:1009500007D04F4502DA17F1040F04DA012082466E
:100960000FE06D1EEEE7002F02DCED1B3E4403E0BE
:10097000781CA84200DD7D1CB81B00F1010A4FF075
:1009800000472078000703D4AA4501DB4FF0FF3A67
:100990000021B7F1004F0DF143088DF8431024D02A
:1009A00002202B23002F01DA7F422D230A21021E71
:1009B000A0F1010000DC5FB197FBF1FC97FBF1F2C5
:1009C00001FB1C7C17460CF1300C08F801CDEEE75A
:1009D000A8F1010003702188090501D5452100E037
:1009E0006521A0F1010800F8011C09980FA9A1EBED
:1009F0000807FF1D00B10120411901EBEA70A16950
:100A00003844081A401EA0612078C00602D420464F
:100A1000AFF30080099828B1D4E901219047206AFA
:100A2000401C20622078C00622D52046AFF300800B
:100A30001EE0002E04DBB34502DD01A8805D00E06E
:100A40003020D4E901219047206A401C2062761CA6
:100A5000AAF101005FEA000A0AD100F03FF8C0687D
:100A60000168405CD4E901219047206A401C206263
:100A7000281EA5F10105DCDC07E0D4E9012118F806
:100A8000010B9047206A401C2062381EA7F1010725
:100A9000F3DC2046AFF30080032011B041E60000F4
:100AA00001694A1C02610878704700B58FB0CDE932
:100AB00001310021059105497944CDE90310114622
:100AC0006846FFF7A9FC0FB000BD0000E5FFFFFF7F
:100AD0000A6802F8010B0A6070470000004870477E
:100AE0004C1D0020004870472C1D002030B5B0F18F
:100AF0000A024FEA900E71F100034EEA817EB0EBDC
:100B00000E0061EB91014FEA101E4EEA017E10EBE0
:100B10000E0041EB11114FEA102E4EEA016E10EB60
:100B20000E0041EB11214FEA104E4EEA014E10EB40
:100B30000E0041EB1141401841F100014FEAD00095
:100B400040EA41704FEAD10110EB80054FEA810481
:100B500044EA907444EB01046D1944EB0404521B05
:100B6000A3414FF0000348BF0A3200D530BD401CFE
:100B700041F1000130BD00002DE9F0411F4604465F
:100B800003260168072A01F4006004DB08B116A5FA
:100B900005E016A503E008B115A500E015A521F0B4
:100BA00010002060A069C01EA0610FB1401EA061AE
:100BB0002046AFF300804FB1D4E901213846904779
:100BC000206A401C2062C01C206206E0206AFAE70E
:100BD000D4E9012115F8010B9047761EF8D2204682
:100BE000AFF30080BDE8F0814E414E006E616E00B3
:100BF000494E4600696E66002DE9F047814616466B
:100C00008AB0354878440DC88DE80D0032487844E4
:100C1000801C03AC0DC884E80D0041F69B300844ED
:100C2000372190FBF1F290FBF1F5A5F1800501FB76
:100C300012041B3C02D56442012000E00020DFF8D2
:100C400098A080460027FA44AAF1BE0A0EE0E00709
:100C50000AD03246684607EB470101230AEB8101BF
:100C600000F046FB8DE8070064107F1C002CEED1DD
:100C7000194F7F44AE3F19E0E80715D007EB041089
:100C80000DF1180A90E80E008AE80E00C068F042E4
:100C900001D1981908903246012306A903A800F053
:100CA00027FB03AB83E807006D10641C002DE3D124
:100CB0004FF0010332466946B8F1000F03A802D095
:100CC00000F001FB01E000F013FBC9E90001C9F8E5
:100CD00008200AB0BDE8F087903E00000048704749
:100CE0002C1D00207546FFF7F9FFAE46050069464A
:100CF000534620F00700854618B020B5FFF7B2FA3A
:100D0000BDE820404FF000064FF000074FF000080C
:100D10004FF0000B21F00701AC46ACE8C009ACE88D
:100D2000C009ACE8C009ACE8C0098D46704710B5F1
:100D30000446AFF300802046BDE81040FFF77DBABF
:100D40004FF0013C50F8042B51F8043B9A4221D15A
:100D5000A2EB0C03934313EACC1317D150F8042BE6
:100D600051F8043B9A4215D1A2EB0C03934313EACA
:100D7000CC130BD150F8042B51F8043B9A4209D103
:100D8000A2EB0C03934313EACC13DBD04FF000002B
:100D9000704700BFD01A01BAB1FA81F101F0180111
:100DA00022FA01F0CB40C1F12001DBB2C0B2C01A7F
:100DB0002CFA01F3D11A914311EAC311E6D170471D
:100DC00001491820ABBEFEE72600020070475FEA2B
:100DD000400C08BF91F0000F4FEA8C234FEAC1226C
:100DE00043EA51514FEA1C5018BF00F5F0404FEA5A
:100DF000300018BF41F000415FEA6C5C00F02980D0
:100E0000BCF1FF3F08BF40F080407047130C06BFA5
:100E100012044FF0100C4FF0000C130E04BF12021E
:100E20000CF1080C130F04BF12010CF1040C930F0A
:100E300004BF92000CF1020CD30F04BF52000CF15E
:100E4000010C11464FF00002A0F11F00A0EB0C00B6
:100E5000704711F0004F08BF704731F000413FF478
:100E6000D5AF0B0C06BF09044FF0100C4FF0000C6F
:100E70000B0E04BF09020CF1080C0B0F04BF090193
:100E80000CF1040C8B0F04BF89000CF1020CCB0F8A
:100E900004BF49000CF1010CCCF12003A0EB0C00C5
:100EA00022FA03F302FA0CF241EA030100F1010015
:100EB000704720F07F4C80EA030023F07F47ACEBC3
:100EC000070303F57C5300F0004003F1FF032DE915
:100ED00080494FEA154B09B44FEA144325EA0B4EFB
:100EE00024EA03480FF2042606EB132749083E784C
:100EF0005FEA320203FB0667C7F5000707FB06F649
:100F00004FEA54374FEAD64606F1020607FB066C55
:100F1000CCF1005C4FEA1C472CEA074C07FB06F4B7
:100F20000CFB06F504EB15464FEA961634BF00207D
:100F30004FF000404FEAD13706FB07FC4FEA1C4C4C
:100F40000CFB0BF7D21B03FB0CF761EB07010CFB4F
:100F50000EF7B0EB074072EB17420CFB08F734BFFB
:100F6000A2EB0742B2EB074261EB17414FEA0C4498
:100F70004FEA910706FB07FC4FEA1C4C0CFB0BF7F2
:100F8000B0EBC74072EB573203FB0CF734BFA2EB58
:100F9000C742B2EBC74261EB57310CFB0EF7B0EB27
:100FA000C70072EB57720CFB08F734BFA2EBC70205
:100FB000B2EBC70261EB5771039F4FEA816141EACF
:100FC000921104EBCC044FEAD1374FEA826206FB60
:100FD00007FC42EA90124FEA80604FEA1C4C0CFB7F
:100FE0000BF7D21B03FB0CF761EB07010CFB0EF7B1
:100FF000B0EB074072EB17420CFB08F734BFA2EBD3
:101000000742B2EB074261EB17414FEA8C554FEABA
:10101000910704EB9C2406FB07FC4FEA1C4C0CFBDD
:101020000BF7B0EBC74072EB573203FB0CF734BF42
:10103000A2EBC742B2EBC74261EB57310CFB0EF794
:10104000B0EBC70072EB57720CFB08F734BFA2EB92
:10105000C702B2EBC70261EB577115EB4C254FEAA3
:10106000816141EA92114FEA82624FEAD13742EA46
:10107000901206FB07FC44F100044FEA80604FEA3F
:101080001C4C0CFB0BF7D21B03FB0CF761EB0701AD
:101090000CFB0EF7B0EB074072EB17420CFB08F7A6
:1010A00034BFA2EB0742B2EB074261EB174115EBED
:1010B0001C154FEA813141EA92414FEA823242EAFD
:1010C00090424FEA80304FEA0C7644F1000448EA3F
:1010D00003434EEA0B484FF0000EB2EB080C71EBE5
:1010E000030724BF624639464EEB0E0E4FF0000B4D
:1010F0000018524149414BEB0B0BB2EB080C71EB62
:1011000003077BF1000B24BF624639464EEB0E0EFF
:101110004FF0000B0018524149414BEB0B0BB2EB67
:10112000080C71EB03077BF1000B24BF62463946C4
:101130004EEB0E0E51EA020718BF46F0010616EB01
:101140000E7655F1000254F1000103D5BDE8890186
:10115000BDE80088BDE88901BDE80048B6195241E4
:1011600041EB0101A3F10103704780807F7E7D7C0C
:101170007B7A7978777676757473727171706F6E29
:101180006E6D6C6C6B6A6A696868676666656464D4
:10119000636362616160605F5F5E5E5D5D5C5C5B5E
:1011A0005B5A5A59595858575756565555555454CD
:1011B000535352525251515050504F4F4F4E4E4D2B
:1011C0004D4D4C4C4C4B4B4B4A4A4A494949484877
:1011D00048474747474646464545454444444443B7
:1011E00043434342424242414141002B9C4630D45A
:1011F00077002BD01CB54FEA370703B44FF010002F
:101200004FF01001BAF1000F06D0BCF1000FDCBFA7
:1012100040F0080040F008014FF000000FBCBDE8AE
:1012200010400BF1010BBBF1010F08BF5FEA17077C
:1012300022BF12F1010211F101014FF0004143F10F
:10124000000300F0004043EA00007047F9D357085C
:10125000D0E746EA064613F1400F4FEA16461FDD77
:1012600013F1200FDFBF16430A46002120335B42F3
:10127000BED0C3F1200746EA064602FA07F74FEA56
:10128000164646EA0706C3F1200722FA03F201FADE
:1012900007F721FA03F14FF0000342EA0702A7E73C
:1012A00046EA020646EA06464FEA164646EA0106BE
:1012B000BCBF46EA0646360C4FF000034FF0000272
:1012C0004FF0000194E72DE9804C9A46934670B4A4
:1012D00091E8380007C831EA400C48BF34EA430CB3
:1012E00003D5FFF7E6FDFFF780FFF0BCBDE8008CFB
:1012F0002DE9804C9A46934670B491E8380007C8AF
:1013000010F0804F08BF13F0804F03D100F005F8B4
:10131000FFF76BFFF0BCBDE8008C20F07F4780EA50
:10132000030023F07F4C07EB0C03A3F57C5300F084
:101330000040A3F1FE0392F0000F00F0B38095F09F
:10134000000F00F077802DE901494FEA11404FEA84
:10135000144621EA004800FB06FC24EA064708FB85
:1013600006F607FB08F800FB07F718EB06484CEBFE
:10137000164C4FEA124B18EB07484FEA15464CEB58
:10138000174022EA0B4E0BFB06FC25EA06470EFB34
:1013900006F607FB0EFE0BFB07F71EEB064E4CEBAB
:1013A000164C4FF000061EEB074E4CEB174B18EB9C
:1013B0000B0840F1000018EB0E0B58EB000840F151
:1013C00000008F1A4FF000013CBFC943661B14BFD9
:1013D000B5EB040C00213CBFC943F61B4FEA174490
:1013E0004EEA8E0E27EA04454FEA1C4704FB0762CB
:1013F0002CEA074C05FB07F70CFB05F604FB0CFC7D
:1014000016EB074642EB174216EB0C4642EB1C422A
:101410001BEB060658EB0202414146EA9E0601D547
:10142000BDE80189B619524141EB0101A3F1010365
:10143000BDE801894FEA14454FEA114724EA054601
:1014400021EA074C05FB07F406FB07F70CFB06F146
:1014500005FB0CFC11EB074144EB17444FEA124724
:1014600011EB0C4144EB1C4422EA074C05FB07F24C
:1014700006FB07F70CFB06F605FB0CFC16EB074614
:1014800042EB174216EB0C4642EB1C456A1854F12E
:10149000000148BF7047B619524141EB0101A3F169
:1014A0000103704795F0000F37D04FEA11424FEA21
:1014B000144721EA024624EA074C02FB07F106FB27
:1014C00007F70CFB06F402FB0CFC14EB074441EBA2
:1014D00017414FEA154714EB0C4441EB1C4125EA38
:1014E000074C02FB07F506FB07F70CFB06F602FBB1
:1014F0000CFC16EB074645EB174516EB0C4645EB87
:101500001C42121951F1000148BF7047B6195241EF
:1015100041EB0101A3F1010370474FEA14454FEA83
:10152000114724EA054621EA074C05FB07F106FBB3
:1015300007F70CFB06F24FF0000605FB0CFC12EB64
:10154000074241EB174112EB0C4251EB1C4148BFE3
:101550007047921841EB0101A3F101037047FEE7C8
:10156000704772B6FEE7000070B5044600F00CF953
:101570000546601C02D004480078044400F004F9D9
:10158000401BA042FAD370BD200000202DE9F84F87
:10159000DFF8BCA10022012503264FF00F090AF154
:1015A000040BAAF1040E00BF0B6805FA02F42340F5
:1015B000A34270D10F7907F00307012F01D0022F4A
:1015C00016D187684FEA420806FA08FC27EA0C079A
:1015D000D1F80CC00CFA08FC4CEA070CC0F808C0A3
:1015E0004768A7430C79C4F3001494403C4344601B
:1015F0000C79E443A4070AD0C4684FEA420C06FA07
:101600000CF7BC438F6807FA0CF72743C7600C79C7
:1016100004F00304022C12D1D40800EB840CDCF893
:1016200020405707FF0E09FA07F824EA0804D1F80A
:10163000108008FA07F848EA0408CCF8208004680B
:101640004FEA420C06FA0CF7BC430F7907F0030788
:1016500007FA0CF7274307604C6814F4403F70D03A
:101660003C4C276847F480472760246822F0030732
:1016700004F480440094384C07EB040CDCF8084870
:1016800097074FEA177809FA08F7BC43334FB84277
:1016900002D1002724E054E0314FB84201D10127A4
:1016A0001EE0304FB84201D1022719E02E4FB84258
:1016B00001D1032714E02D4FB84201D104270FE0D8
:1016C0002B4FB84201D105270AE02A4FB84201D179
:1016D000062705E0284FB84201D1072700E0082778
:1016E00007FA08F72743CCF80878DAF8004057469D
:1016F000D1F804C09C435FEACC2C00D51C433C606D
:10170000DBF800405F46D1F804C09C435FEA8C2CB4
:1017100000D51C433C60DEF800407746D1F804C099
:101720009C435FEA8C3C00D51C433C60084F083F5B
:101730003C68D1F804C09C435FEACC3C00D51C4314
:101740003C60521C102AFFF42FAFBDE8F88F000058
:10175000083C014044380240003001400000024093
:101760000004024000080240000C02400010024049
:101770000014024000180240001C02400AB18161BE
:1017800070470904FBE700000148806870470000CB
:10179000200000200248816802781144816070476F
:1017A000200000200B4810B5016841F40071016071
:1017B000016841F480610160016841F48071016059
:1017C000032000F061F80F2000F006F800F024F884
:1017D000002010BD003C024070B50D4D04464FF492
:1017E0007A712878B1FBF0F00A490968B1FBF0F092
:1017F00000F035FC48B9102C07D200222146501EBB
:1018000000F022F800206C6070BD012070BD000067
:10181000200000202C0000200A4808B5016841F48F
:1018200080410160006800F4804000900548001F7E
:10183000016841F080510160006800F08050009024
:1018400008BD000044380240F0B40E4B1B680C4643
:10185000C3F30223C3F10705042D00D90425191D84
:10186000072901D2002300E0DB1E012606FA05F15C
:10187000491E214099409E40761E16403143F0BCDF
:1018800001F0F0B90CED00E0064900F0070208682D
:101890004FF6FF03184040EA0220034A1043086055
:1018A000704700000CED00E00000FA052DE9F0475C
:1018B0000E46050065D0DFF81481D8F80000F7B2B5
:1018C00000F00700B04207D288F80070D8F8000096
:1018D00000F00700B04254D128683D4C810712D572
:1018E000400703D5206840F4E050206028780007C6
:1018F00003D5206840F4604020602068A96820F08B
:10190000F000084320602878C0072DD0304968686F
:101910000839012812D0022813D0032811D00968F1
:10192000890700292DDA216821F003010143216094
:10193000FFF72AFF814641F2883A0EE009688903E1
:10194000EFE709688901ECE7FFF71EFFA0EB09014B
:10195000514502D90320BDE8F0872068696800F08E
:101960000C00B0EB810FEFD1D8F80010404601F029
:101970000701B14207D90770006800F00700B042C4
:1019800001D00120E7E72878400705D52068E968FD
:1019900020F4E050084320602878000706D520682E
:1019A000296920F4604040EAC100206000F018F886
:1019B0002168084AC1F30311515CC8400649086018
:1019C00006480068FFF708FF0020C4E7003C02401B
:1019D00008380240CB4800082C00002024000020DA
:1019E000154810B5006810F00C02144813D04110CF
:1019F000042A0FD0082A0ED10F4C241F2268236816
:101A000002F03F025B0207D52068C0F38810A0FBFC
:101A1000010106E0084610BD2168C1F38811A1FB51
:101A200000010023FEF730FC2168C1F30141491C8D
:101A30004900B0FBF1F010BD083802400024F4006A
:101A40002DE9F84F04006ED02078DFF84C93C007E2
:101A5000A9F104054AD009F104000168C1F381012C
:101A6000012908D00068C0F3810002280AD1D9F802
:101A70000000400206D52868800337D5606800283A
:101A8000E1D033E06068B0F5803F10D0B0F5A02F12
:101A9000286810D020F480302860286820F4802046
:101AA00028606068A8B1FFF76FFE06460DE0286861
:101AB00040F48030F4E740F480202860F7E700BF6E
:101AC000FFF762FE801B642873D828688003F7D56F
:101AD0000CE0FFF759FE064605E000BFFFF754FE95
:101AE000801B6428F0D828688003F7D42078DFF8BA
:101AF000AC8280074FF0000A3ED5A748001D016860
:101B000011F00C0F08D00068C0F3810002280BD13F
:101B1000D9F80000400207D42868800716D5E0688D
:101B2000012800D112E033E1E068B8B10120C8F823
:101B30000000FFF729FE064605E000BFFFF724FE80
:101B4000801B0228C0D828688007F7D5286821693B
:101B500020F0F80040EAC10028600DE0C8F800A0BD
:101B6000FFF712FE064604E0FFF70EFE801B022878
:101B70001FD828688007F7D42078000722D5864F21
:101B800087486169703771B101210160FFF7FCFD81
:101B9000064604E0FFF7F8FD801B022809D83868E4
:101BA0008007F7D50EE0C0F800A0FFF7EDFD064670
:101BB00005E082E0FFF7E8FD801B02287DD8386849
:101BC0008007F7D42078400768D5DFF8CCB100272C
:101BD0000BF13C0BDBF80000C0000BD4DBF800106D
:101BE00041F08051CBF80010DBF80000012700F035
:101BF000805000906B4E3068C00510D4306840F4BF
:101C000080703060FFF7C0FD009005E0FFF7BCFD7D
:101C10000099401A022850D83068C005F6D55E4EAB
:101C2000A0686C3601280FD00528306810D020F04D
:101C300001003060306820F004003060A068B8B166
:101C4000FFF7A2FD00900FE0306840F00100F4E7DC
:101C500040F004003060F7E7FFF796FD0099411A65
:101C600041F28830814266D830688007F4D50EE0B2
:101C7000FFF78AFD009007E0FFF786FD0099411A03
:101C800041F28830814256D830688007F4D42FB1B1
:101C9000DBF8001021F08051CBF80010A069C8B328
:101CA0003D49091D0968C1F3810102294AD0022872
:101CB000504607D0C8F8600000E03CE0FFF764FD44
:101CC00004463BE04746C8F86000FFF75DFD064666
:101CD00005E000BFFFF758FD801B02282BD82868BD
:101CE0008001F7D4D4E907010843A16A2E4A4908C4
:101CF00002EB0141626A41EA8211084394F82C1018
:101D000040EA0161C9F8001001203866FFF73CFD88
:101D1000044606E03EE000BFFFF736FD001B022848
:101D200009D828688001F7D534E000BFFFF72CFD03
:101D3000001B022802D90320BDE8F88F2868800123
:101D4000F4D427E00128F7D0D9F80000E26900F4C4
:101D5000800191421CD1226A00F03F01914217D1CB
:101D600047F6C071626A0140B1EB821F10D1A26ACE
:101D70004FF0FF3300F4403103EB5202B1EB024F5E
:101D800006D194F82C1000F07060B0EB016F01D018
:101D90000120D1E70020CFE704380240000047428D
:101DA000800E4742007000400000FFFF70B5040045
:101DB00009D0606A002540B125616561A56294F88B
:101DC000510040B10CE0012070BD6068B0F5827F29
:101DD000F4D0E561F2E784F85050204600F044F872
:101DE000022084F851002068016821F04001016060
:101DF000A088218900F4827001F404410843A1897C
:101E000001F400610843217C01F002010843217DB7
:101E100001F001010843218B01F400710843217F87
:101E200001F03801084394F8201001F080010843C4
:101E3000218D01F40051084321680860A069042144
:101E400001EA104094F8241001F0100108432168C1
:101E500048602068C16921F40061C16165650120A5
:101E600084F85100002070BDF0B587B004461421FD
:101E70006846FEF777FB1C492068884232D11B4830
:101E80000024016841F480510160006800F4805032
:101E9000059016481438016841F00101016001689D
:101EA00001F001010591016841F002010160006843
:101EB000022500F002000590C020CDE9000502AA2D
:101EC0000326052782E8D00069460948FFF75EFB34
:101ED0000820CDE9000502AA694682E8D00005483D
:101EE000FFF754FB07B0F0BD00300140443802401A
:101EF00000000240000402402DE9F84F98461646C3
:101F00008A460446FFF740FC814694F851000128B8
:101F10001ED1BAF1000F73D0002E71D094F850008A
:101F2000012815D0012784F85070032084F851004F
:101F300000256565C4F830A0A686E686A563A5875A
:101F4000E58765642564A068B0F5004F03D00CE018
:101F50000220BDE8F88F2068016821F0400101608F
:101F60002068016841F480410160206801684906E9
:101F700003D4016841F040010160E068B0F5006FF2
:101F8000606803D048B3012E27D047E008B1012E86
:101F90001FD1206B21680088C86006E02068816836
:101FA000890709D5216B0988C160206B801C2063DB
:101FB000E08E401EE0860CE0FFF7E6FBA0EB090197
:101FC000414503D3B8F1FF3F03D035E0B8F1000F2E
:101FD00032D0E08E0028E1D123E0206B2168007828
:101FE000087306E02068816889070AD5216B0978A3
:101FF0000173206B401C2063E08E401EE0860DE0E4
:102000002BE0FFF7C1FBA0EB0901414503D3B8F179
:10201000FF3F03D010E0B8F1000F0DD0E08E002894
:10202000E0D14A464146204600F00CFA08B1202093
:102030006065A06830B109E084F8517084F85050B0
:10204000032086E72068C1688068009084F851709A
:1020500004F8505F60680028F3D0012079E710B5DC
:10206000401EB0F1807F01D3012010BD4FF0E0246D
:1020700060610F21601700F0F5FD0020A0610720CE
:102080002061002010BDFEE708B50021009040F25D
:102090003F1340F2DF12084600F09AF808BD2DE920
:1020A000FC5F0FFA82F904B2A9EB04052FB20FFA14
:1020B00083FB0DB2ABEB0506DDF830A036B23EB1C6
:1020C0004FF0FF32002F0CD017DD4FF0010015E06C
:1020D000904202D9034610461A460B46CDF800A09E
:1020E00007E0994202D90A46194613460246CDF83E
:1020F00000A000F06DF8BDE8FC9F10460190002E96
:1021000000DD01220092002F00DC7F423FB2002E52
:1021100000DC76420FFA86F8A7EB080006B2A9B2F7
:10212000A0B2524600F018F84C4501D15D45E2D00E
:10213000700000B2C8F10001884205DDA6EB08017D
:102140000EB2019921440CB2B842E8DAF01906B295
:102150000098284405B2E2E738B51446B0F5F07FA0
:1021600013D2B1F5A07F10D20B46024601F0D3FD89
:1021700001F0C2FD200A8DF800008DF80140022117
:10218000684601F03DFF01F063F938BD2DE9F843E1
:102190001E46089C1746884605460B460094FFF7E6
:1021A0007EFF33463A46194628460094FFF777FFEC
:1021B0002A463346414610460094FFF770FF3A46E0
:1021C0003346414610460094FFF769FFBDE8F883A7
:1021D0002DE9F0414FF4F074069DA0423AD24FF43D
:1021E000A076B14236D2904234D8994232D8A24237
:1021F00000D3621EB34201D340F23F13141A5E1A99
:10220000641C761C744301F086FD01F075FD00200E
:1022100011494FF480762A0A5FFA85F301F81020FD
:1022200001EB4005401C80B26B70B042F6D34FF614
:10223000FF775CB1B44201D9354600E0254607EA94
:102240004501054801F0DCFE641BF2E7BDE8F04102
:1022500001F0FEB8BDE8F081880000202DE9F843C8
:102260009846A2F12003DDF820905F2B00D32022B6
:10227000164B03EB021701F10F0293B2C21D92B28B
:10228000A7F5007701F047FD01F036FD0024002599
:102290003E5D300601D5404600E04846010A8DF813
:1022A00000108DF801000221684601F0A9FE7006B9
:1022B0006D1C060EEDB2082DEBD3641CE4B2102C9D
:1022C000E5D3BDE8F84301F0C3B80000BF42000801
:1022D0002DE9F84F9B46DDF828A01600074620D0D0
:1022E00005460C464FF4F0784FF4A07916E00A2A20
:1022F00019D005F10800404502D910343D46A4B27A
:1023000004F1100048450CD85B4621462846CDF81C
:1023100000A0FFF7A3FF0835ADB2761C3278002A83
:10232000E5D1BDE8F88F10343D46A4B2F5E70000D2
:102330002DE9F04186B014216846FEF713F92A48CA
:102340000024016841F080010160016801F0800112
:102350000591016841F001010160016801F001018E
:102360000591016841F004010160016801F0040178
:102370000591016841F00201016000681B4F00F007
:1023800002000590012210213846FFF7F7F9DFF827
:10239000608001224FF4E0414046FFF7EFF9002250
:1023A0004FF400414046FFF7E9F9102001250226CD
:1023B000CDE90005CDE9024669463846FFF7E6F863
:1023C00020208DE8310069463846FFF7DFF84FF4EA
:1023D0007040CDE90005CDE9024669464046FFF769
:1023E000D5F806B0BDE8F081303802400008024060
:1023F00000040240104810B50E4901604FF482718C
:10240000416000218160C1604FF400720161C0E948
:1024100005121822C0E90721416281620A21C162C6
:10242000FFF7C4FC002803D0BDE81040FFF799B8BF
:1024300010BD00000030014030000020FEE7FEE744
:1024400070470000F8B515460E460B46009204464C
:102450000122022100F02CF8A0B9134813490068AA
:10246000B0FBF1F04FF47A71484300906068B0F52A
:10247000827F0DD13346002280212046009500F056
:1024800017F870B1606D40F0200060650320F8BD62
:10249000009830B1401E009020688068C04300065C
:1024A000F6D50020F8BD00002C00002000366E019B
:1024B0002DE9F8431E46914688460446089DFFF7DD
:1024C00063F9401B351AFFF75FF907462648006895
:1024D000C0F3CB3068430AE0701C09D0FFF754F911
:1024E000C01BA8420FD275B10098B8B3401E00902F
:1024F0002068816838EA010033D000214945EBD1DA
:102500000020BDE8F8832068416821F0E0014160C7
:102510006068B0F5827F0BD1A068B0F5004F02D0A3
:10252000B0F5806F04D12068016821F0400101609E
:10253000A06AB0F5005F09D12068016821F400515C
:1025400001602068016841F400510160012084F8B5
:102550005100002084F850000320D2E7FFE7002557
:10256000C6E70121CAE700002C00002070B5012257
:1025700010214648FFF702F9454D4FF40044002270
:1025800021462846FFF7FAF800F062FF01F0C8FC88
:102590000520FEF7E9FF002261102846FFF7EEF85C
:1025A0001420FEF7E1FF01F0BBFC9620FEF7DCFFF4
:1025B00001223849F02001F0DCFB36490122491C98
:1025C000F02001F0D6FB33490122891C362001F0AE
:1025D000D0FB30490122C91C3A2001F0CAFB2D4929
:1025E0000122091DB42001F0C4FB2A490122491D22
:1025F000B72001F0BEFB274908220B31E82001F08B
:10260000B8FB24490122891DC12001F0B2FB2149F8
:102610000122C91DC22001F0ACFB1E490122083174
:10262000C52001F0A6FB0E221B49E02001F0A1FB12
:1026300019490E220E31E12001F09BFB15490122C0
:102640000931F02001F095FB124901220A31F020F6
:1026500001F08FFB132001F080FB1420FEF784FFB4
:10266000112001F07AFB7820FEF77EFF292001F08F
:1026700074FB1420FEF778FF0020FFF705FD2146CC
:102680002846BDE870400122FFF778B800080240F4
:1026900000040240AC420008AF4800087047000048
:1026A000F0B52DED048B10EE100A87B07C497D4A01
:1026B000B0EE609AB0EE408A9FED7B0A884202DA63
:1026C000B0EE408A05E018EE100A904201DD9FED61
:1026D000778A9FED771A0020DFED760A764E00BFED
:1026E00001EE900A06EBC001401CB8EE612AF0EE44
:1026F000401A80B2C82842EE011AC1ED001AC1ED9D
:10270000010AEDD300259FED6D1A284606EBC001A6
:1027100091ED000A30EE480AB5EEC00AF1EE10FA6B
:1027200001D2B1EE400AB4EEC10AF1EE10FA02D2C3
:10273000B0EE401A0546401C80B2C828E6D306EB2E
:10274000C5005F4B80ED019A6FF001002AB2B1EE37
:10275000040A00BF00FA85F109B2C82919D29142D2
:1027600017D0002801DA444200E0044601EE104A86
:10277000F0EE498AB8EEC11A41EE408A18EE904A4E
:102780009C4201D9F0EE608A89B206EBC101C1ED2D
:10279000018A401C00B20228DCDDF0EE490AB0EEEE
:1027A000480A01F013F8B0EE490A00F03BFE45A0DC
:1027B00001F06AF900F0F4FF01F01EF900F038FFB3
:1027C0000024AC4206D006EBC40090ED010A01F0F3
:1027D00081FAC0B10020AC420DD106EBC4004068C4
:1027E00001F0ECFC41EC100B3BA153EC102B01A8C9
:1027F000FDF7C2FD01A806EBC40191EC020A4FF4FB
:10280000784101F067F9641CA4B2C82CD9D3B0EEAA
:10281000480A01F031FA1F250446D6230246E42176
:102820000095FFF73CFC2246EA23E4211046009580
:10283000FFF735FC18EE100A01F0C0FC41EC100B5C
:1028400027A153EC102B01A8FDF796FD01A8FDF779
:102850006AFE4FF6FF7606EAC005A4EB550084B287
:102860002D2C00D22D246019B0F5DC7F02D9C5F5DE
:10287000DC7084B26019401ED22782B2E12339464F
:1028800020460096FFF7A4FC1F2301AA39462046E4
:102890000096FFF71DFD07B0BDEC048BF0BD0000F6
:1028A0000000A0420000C8420000A0420000C84250
:1028B00043D4CD3D000070C25C15002000007A4476
:1028C000000070C2537065637472756D20416E6153
:1028D0006C797A6572000000252E316664426D00C5
:1028E000252E3266204D487A000000002DE9F04F79
:1028F000794E2DED028B8FB03078B0EE408A08B95A
:1029000000F00EF918EE100A744988420CDB70785A
:10291000F7EE008A60B90120714A7070C82102F692
:10292000944000F0B5FD03E09FED6E0AC8EE008A0A
:102930009FED6D8AB3EE040A002008EE808A9FEDB9
:102940006B0A6B4978EE000A9FED6A1A01F5C865BB
:1029500001EBC00305EBC00293ED000A82ED000A13
:10296000B4EEE00AF1EE10FA04D893ED010A82ED1C
:10297000010A01E082ED011A401C80B2C828E7D3A9
:10298000707808B1564804E0142109A8FDF7EAFD63
:1029900009A800F075FFC821574800F0D3FC57A0E4
:1029A00001F072F800F0FCFE01F026F800F040FEA5
:1029B000032307AAC821504801F010F9DFF820B11D
:1029C00000240DF11C084FF4784A00273846414690
:1029D00031F81020A24201D101270AE0401CC0B208
:1029E0000328F5D305EBC40090ED010A01F072F95C
:1029F000E8B37078D146D8B3DBED001A434911EE45
:102A0000902A8A423BDD05EBC40292ED000A70EE8B
:102A1000610AF5EEC00AF1EE10FA01D2F1EE600A99
:102A200010EE902A3A4B9A4229DB9BED021A11EEE6
:102A3000100A884223DD71EE810A31EEC11A70EE70
:102A4000600A30EE411AF5EEC00AF1EE10FA01D23A
:102A5000F1EE600AB5EEC01AF1EE10FA01D2B1EE55
:102A6000411A10EE901A2B48814206DB01E01DE06E
:102A700005E011EE101A814201DA4FF47C49002082
:102A80006FB105EBC400406801F098FB41EC100BFE
:102A900021A153EC102B01A8FDF76EFC01A805EB5A
:102AA000C40191EC020A494601F014F8641CA4B276
:102AB000C82C8AD3B0EE480A01F0DEF840F2FF716C
:102AC0000091E42302462621FFF7E9FA0FB0BDEC9E
:102AD000028BBDE8F08F00000C00002000606A4609
:102AE0008802002000606A460000A042CDCC4C3D28
:102AF0001C0F0020000070C25C1500207377656514
:102B000070206672657175656E6379000AD7233C23
:102B10009A99193EEC51383E252E3166000000008E
:102B200010B50B4801F080FA0A4801219FED0A0A0E
:102B3000017000214170094880ED000A80ED010A12
:102B400080ED020A80ED030A80ED040A10BD00004A
:102B50001C0F00200C000020000000008802002054
:102B6000FEF718BE30B593B030216846FDF7FAFC89
:102B700014210CA8FDF7F6FC1E480025016841F061
:102B800080510160006800F0805011901A4801687F
:102B900041F4804101600068022400F480401190FB
:102BA00001200090000401908001CDE9064008203A
:102BB00008904FF4A870CDE9090404200B906846F2
:102BC000FEF73EFF08B172B6FEE70CA90F2081E8C0
:102BD00031004FF4A0500F904FF480501090052119
:102BE0000CA8FEF763FE002801D072B6FEE713B012
:102BF00030BD0000403802400070004002480168CB
:102C000041F470010160704788ED00E0FEE703B415
:102C100001984100009850EAC12018BF04204A0DD5
:102C200018BF40F0010040F2FF72B2EB515F08BFE5
:102C300040F00200012808BF052002B070474100A3
:102C4000080218BF04200A0E18BF40F001004FF020
:102C50007F4232EA010108BF40F00200012808BFAC
:102C6000052070470907090E002804DB00F1E02069
:102C700080F80014704700F00F0000F1E02080F8A9
:102C8000141D704710B510EE100A2DED068BB7EE2F
:102C9000001A10EE901AB0EE418A0022A0F5000C46
:102CA000DFEDFE9A4FF00073BCF1FE4F4FF07F4412
:102CB00003EB410C80F0B481BCF1804FC0F0208266
:102CC000F74901449FEDF73AB1F5005F40F2D48235
:102CD00000F58021CB0C03F00F0101EE901AC3F335
:102CE00007137F3BA0EBC350B8EEE12A00EE100AB9
:102CF0001A44DFEDED2AF0EE411A42EE221AF0EE10
:102D0000613A70EE232A30EE632A12EE900A00F543
:102D100000606FF30B0001EE900A73EEE13A33EEC0
:102D2000804AC1EE223A22EE230A10EE100A00F584
:102D300000606FF30B0000EE100A00EE612A00EE57
:102D4000442A62EE232A70EE221A21EEA12ADFED38
:102D5000D73A02EE233A23EE023A20EE012A22EE7F
:102D6000811A03EE211A32EE010A10EE100A00F564
:102D700000606FF30B0000EE100A72EE401A31EEA5
:102D8000812A9FEDCB1A60EE011A9FEDCA1A20EE40
:102D9000011A9FEDC90A02EE001A31EE810A10EE07
:102DA000100A00F500606FF30B0000EE100AC34834
:102DB00071EEC01A31EE812A784400EBC10090ED2B
:102DC000003AD0ED011A100101EE100AF8EEC12A06
:102DD00032EE211A31EE001A31EE031A31EE221AC8
:102DE00011EE100A00F500606FF30B0009EE100AF7
:102DF00039EE621A31EE431A31EE400A30EE610AC2
:102E000032EE40AA10EE900A002100F500606FF348
:102E10000B0008EE900A084670EEE8AA4FF000009A
:102E200029EE280A00F00C01F0EEC00A10EE900A1C
:102E3000B0F18B4F0DDD10EE900AB4EB400F08D3CC
:102E400010EE100A4FF08B4262F31E0008EE900A5B
:102E500013E069EE2A0A38EEAA1A4AEE010A30EEA9
:102E6000201A11EE100A00F500606FF30B0008EE57
:102E7000900A30EE680A70EE209A0C204FF00000A5
:102E800038EEA90AB5EEC00AF1EE10FA34BFFEEE34
:102E9000000AF6EE000A30EE800ABDEEC00A10EE1F
:102EA000100A011100EE101AF8EEC00A00EE100A26
:102EB000B8EEC00A38EEC00A30EE290ADFED801AFB
:102EC0009FED801A00EE211ADFED7F1A7F4900F096
:102ED0000F0040EE011A21EE800A794401EB8001D7
:102EE00091ED001A7A49794401EB8001D1ED001A85
:102EF000784901EE801A794401EB8000764990ED23
:102F0000000A31EE001AB0EEE00A10EE100A884214
:102F100015DA10EE100AB4EB400F10D39FED6F0AD4
:102F200030EE800ADFED6E0A20EE200A68EE010A1C
:102F3000BDEC068BBCEEC00A20EE200A10BD10EEE0
:102F4000100A6849884243DA10EE100AB4EB400FC9
:102F50003ED3BDEEE00A68EE010A10EE100A00EB67
:102F6000D0725110C90501F17E5100EE101AA0EB8C
:102F70006200C00560EE200A00F17E5000EE100AEB
:102F800060EE808A18EE900AB4EB400F0FD1022059
:102F9000FDF717FB00F0BEF910EE101A18EE100A3C
:102FA000BDEC068B61F31E0000EE100A10BD18EE9A
:102FB000900A400011D018EE900AFFF740FE042856
:102FC00008BF00F0AFF9B0EE680ABDEC068B10BD8B
:102FD000F5EEC00AF1EE10FA0FD20220FDF7F1FA79
:102FE00000F0A0F910EE101A18EE100ABDEC068BD6
:102FF00061F31E0000EE100A10BD0220FDF7E1FA99
:1030000000F088F910EE101AB0EE480A10EE100A1F
:10301000BDEC068B61F31E0000EE100A10BD00BF70
:10302000BCF1804F6CD300BF00F1FF43B3F1FE4F02
:1030300024D200BFB0EEC00A10EE100AC1F3C7538D
:103040007F2B0DDB972BBFF63BAEC3F196034FF002
:10305000010C0CFA03F3A3F1010C1CEA010F08D0D8
:103060000120FDF7AEFABDEC068BBDE8104000F084
:1030700049B90B4218BFBFEE008A21E643001CBFCE
:103080004FF08073B3EB400F34D96FF01A02DFEDCD
:10309000161A20EE210A10EE100A27E000000000A8
:1030A000001080C0ABAAAA3E0000803D7EE24C3EEC
:1030B00000B03842D49AB8BB3BAA3842201B00006B
:1030C000FC596337C9FF753A1872313DBE1A0000CA
:1030D000F21A0000621A00000000FC420000FE42EA
:1030E0000000004B000040430000004D10F0004F76
:1030F000A0D1E5E5A0F50003B3F1FE4F21D2DFE555
:1031000003EB4103B3F1007F11D3F5EEC00AF1EEFA
:1031100010FA05D1430018BFB4EB400F76D883E70F
:1031200001F0004141F0FC5100EE901A7CE7B3F150
:10313000807F06D210EE903AA3F5000300EE903A9D
:1031400072E720F000426FF0FF4C604C02EB0C0382
:10315000A34210D321F000439C44A4450BD3B0F10B
:103160007E5F18BF5FEA410C50D0B2F1FF4F98BFAD
:10317000B3F1FF4F05D9BDEC068BBDE8104000F060
:10318000BDB8B0F1FF4F0FD0C1F3C7527F2A09DBA2
:10319000972A11DAC2F19602012303FA02F2531EB2
:1031A0000B4205D0002208E011F0004F55D128E075
:1031B0000A4218BF012200D1022210F5000F13D0DD
:1031C00028B3B0F1004F26D010F1814F4FD04FF00F
:1031D000FE42B2EB400F94BF01200020012202EB1F
:1031E000E171884239D10CE011F0004F02D0012A80
:1031F00038D032E0012A02BF9FED350ABDEC068BC4
:1032000010BD9FED340ABDEC068B10BD2FE011F010
:10321000004F0CD121E0B1F1FF4F1ED011F5000F8E
:1032200005D011F0004F15D00AB1012A08D00220B4
:10323000FDF7C7F9BDEC068BBDE8104000F054B8AF
:103240000220FDF7BEF900F04FF8BDEC068BB1EEA1
:10325000400A10BD0AB1012A04D0B0EE690ABDECE3
:10326000068B10BDBDEC068B9FED1B0A10BDBDEC9F
:10327000068BB7EE000A10BD30EE410AB5EE001A1B
:103280009FED172A00EE413AB6EE001A60EE001AE2
:1032900000EE431A61EEC11A9FED101A20EE011ADA
:1032A00020EE020A9FED0F2A01EE820A71EE001A4B
:1032B00011EE900A00F500606FF30B0009EE100AA2
:1032C00031EE491A31EE00AA9CE50000FFFF3F00F5
:1032D000000080FF0000807F0000008000B0B84147
:1032E000D49A38BB3BAAB841DFED030AB7EE001A07
:1032F00081EE200A704700000000000030EE200A36
:1033000070470000DFED020A80EEA00A704700005F
:10331000000000009FED020A20EE000A7047000046
:10332000000000709FED020A20EE000A70470000C6
:103330000000001030380A2801D201207047002018
:10334000704700009FED310A00220CE000EBC20341
:10335000D3ED010AF4EEC00AF1EE10FA01DDB0EE91
:10336000600A521C92B28A42F0D3B5EEC00AF2EE65
:10337000040AF1EE10FA264802D29FED260A1CE05C
:10338000B0EE081A30EE011A81EE200ABDEEC00A36
:1033900010EE101A00EE101AB8EEC00A20EE200A45
:1033A000B4EEC10AF1EE10FA00D2491C01EB810122
:1033B000490000EE101AB8EEC00A184A80ED010A62
:1033C0009FED150A80ED020A90ED011A31EE400AD8
:1033D00010EE101A914202DCF1EE040A06E010EE43
:1033E000101A0F4A914201DDF3EE040AC0ED030A00
:1033F00080EE201ABDEEC10A10EE101A491C0161C0
:103400000D2901DD0D2101617047000000007AC423
:103410000C00002000000000000070C2000070419D
:103420000000F04108489FED070A042180ED010AE1
:103430009FED060A80ED020AB3EE040A80ED030A4E
:1034400001617047000000000C000020000070C205
:10345000012211030148FEF791B900000004024067
:1034600000224FF480510148FEF788B90004024061
:1034700000224FF400510148FEF780B900040240D9
:10348000012251030148FEF779B90000000402400F
:10349000F0B514462DED028B85B00500DFED5B8A9B
:1034A000C2ED008AC2ED018AC2ED028AC2ED038A32
:1034B000C2ED048A7ED003297CD30A236A4600F039
:1034C0008DFBBDF80000524A05EBC000D0ED010AAB
:1034D00010EE901A91426DD890ED002A84ED002AEA
:1034E000C4ED010A9FED4B0AB3EE0E1AF0EE681A16
:1034F00030EEC13A0121684630F8112005EBC202D6
:10350000D2ED012A92ED001AB4EEE23AF1EE10FA91
:1035100044DC31EE428AB5EEC08AF0EE483AF1EE74
:1035200010FA01D2B1EE488A9FED3B1A3B4B28EED0
:10353000011A11EE102A9A4230DB11EE102A384B94
:103540009A422BDC72EE633A364F01228A4258D0FF
:1035500030F8123005EBC30696ED001A31EE631A0F
:10356000B5EEC01AF1EE10FA01D2B1EE411A11EE29
:10357000106ABE4245DA05EBC30292ED011A32EE43
:10358000811AF6EE002A21EE221AB4EEC01AF1EEEC
:1035900010FA03DDB0EE410AF0EE481A491C89B278
:1035A0000A29A9D310EE100A1F49884225D2C4ED7A
:1035B000021A00E021E084ED030A30EE600AB3EE67
:1035C000041AC0EE010AB2EE040AFFF75BFBF0EE4C
:1035D000000A20EE200A10EE100A84ED040AB0F171
:1035E0007F5F03DDB7EE080A84ED040A10EE100ACF
:1035F0000E49884201DAC4ED048A05B0BDEC028BA5
:10360000F0BD521C92B20A2AA0D3C7E70000000006
:1036100000005CC200007AC400007A440000C84286
:1036200000409C459A99193E0000C8C26F12833A27
:103630002DE9F0432DED028B85B000252D22E423EA
:10364000262110460095FEF72AFD4EF67D760023D2
:103650004AA2202102200096FEF73AFE0027484C9D
:103660004FF6FF7841E000BF00EE107A94ED028A39
:10367000D4ED030AB8EEC00A00EE208A94ED010AE8
:10368000DFED400A30EE200AB4EEC80AF1EE10FA7F
:103690002ED3B0EE480A00F0F7FB034681462D22F8
:1036A000194629200095FEF7FAFC18EE100A00F0E2
:1036B00085FD41EC100B34A153EC102B01A8FCF755
:1036C0005BFE01A8FCF72FFF08EAC000C0F125004F
:1036D00080B2A9F1080189B2022800D20220002399
:1036E00001AA0096FEF7F4FD7F1C20698742BBDB30
:1036F000E4234FF4DC7219462D200095FEF7CFFC31
:1037000023A42046FCF70FFF08EAC000C0F5DB70D9
:10371000474680B2D22100232246CDF80080FEF732
:10372000D7FD50244FEA070800EE104AB8EE400AD1
:1037300000F0A2FA0746E9230246E4210095FEF7CD
:10374000AEFC224615A101A8FCF716FE01A8FCF765
:10375000EAFE08EAC001A7EB510080B2002301AAEB
:10376000EA210096FEF7B4FD641DE4B2642CDBD9B7
:1037700005B0BDEC028BBDE8F083000064426D0033
:103780000C0000200AD7233C252E306600000000E4
:10379000467265712F4D487A0000000025750000C3
:1037A00008B54EF67D700090F92340F2DF121F211C
:1037B0000020FEF70DFD4FF6FF700090E4234FF45C
:1037C000DC7226212D20FEF703FD08BD70B52DED1E
:1037D000028B8CB04FF4FC6440F23F1540F2DF16D0
:1037E000B0EE608AF0EE408A2B463246FA21002085
:1037F0000094FEF7EDFC1F2000902B463246FA2184
:103800000020FEF7C3FC18EE900A00F0D7FC41EC54
:10381000100B13A153EC102B01A8FCF7ADFD4FF4D6
:103820008475002301AA29460C200094FEF750FD60
:1038300018EE100A00F0C2FC41EC100B0CA153EC86
:10384000102B01A8FCF798FD002301AA2946F020BF
:103850000094FEF73DFD0CB0BDEC028B70BD000086
:10386000467265713A20252E3266204D487A000056
:10387000506F7765723A20252E31662064426D00C4
:103880002DE9F04F93B004464FF4FC6940F23F1528
:1038900040F2DF162B463246FA210020CDF8009088
:1038A000FEF796FC1F2000902B463246FA2100209E
:1038B000FEF76CFC20682C4982464FF4847B8842DA
:1038C00048DD206900F07AFC07468846606800F011
:1038D00075FC05460E46504600F070FC41EC100B9E
:1038E0008DE8E00153EC102B20A104A8FCF744FD67
:1038F000002304AA59460820CDF80090FEF7E8FC02
:103900002248A568854215DD2149E068884211D228
:1039100000F054FC06460F46284600F04FFC41ECF0
:10392000100B1CA153EC102B04A8CDE90067FCF789
:1039300023FD03E01DA104A8FCF71EFD002304AA3B
:103940004FF49171CDF800900820FEF7C1FC13B040
:10395000BDE8F08F20A104A8FCF70EFD002304AA07
:103960005946CDF80090EFE70AD7233C66633A2525
:103970002E32664D487A202050633A252E316664F7
:10398000426D20206D613A252E3366006F12833A16
:103990000000C8C266733A252E32664D487A202050
:1039A00050733A252E316664426D000066733A30DA
:1039B0002E3030202050733A302E3020206D613A66
:1039C000302E3030302020286E6F2073696465629D
:1039D000616E6429000000005377656570696E6749
:1039E0002E2E2E202838302D313030204D487A2C84
:1039F0002031357329000000F0B500252DED028B34
:103A000081B01F4C4BF2B6569FED1E8A4FF4DC7707
:103A10001DE000BF00EE905A94ED020A94ED031AE7
:103A2000F8EEE00A00EE810AD4ED010A70EE880A91
:103A3000F4EEC00AF1EE10FA0CD300F025FA0146BC
:103A400003463A462D200096FEF729FB6D1C20699F
:103A50008542DFDB5FF0500400EE104AB8EE400A0A
:103A600000F00AF9E423024626210096FEF717FB30
:103A7000641DE4B2642CEFD901B0BDEC028BF0BD43
:103A80000C0000200AD7233CF8B5054641F6231464
:103A900040F2DF1600211D23324608460094FEF74F
:103AA00097FB1F201E230090324619460020FEF788
:103AB000F6FA2846FCF737FD4FF6FF7303EAC0001D
:103AC000C0F5F070C0F34F002A4606210094FEF7BF
:103AD000FFFBF8BD2DE9F04188462DED028B82B049
:103AE0000746B0EE608A00F0C7F80546B0EE480A17
:103AF00000F0CAF90446384890ED020A00F0C4F913
:103B00000346001B80B2032805D2292B02D3D81EFE
:103B100084B200E026240120691E09B200FA85F073
:103B200000B22D2900DA2D214FF4DC72904200DD25
:103B3000104682B288B22146CDF80080FEF748FBDD
:103B4000A5F12E004FF6FF76B0F5C57F0CD2262CDE
:103B50000AD9601E81B232462846FEF7FDFA424677
:103B600021462846FEF7F8FA002F2FD03878002893
:103B70002CD03846FCF7D7FC06EAC000B5EB500F56
:103B800003D9A5EB50018DB200E000252918B1F54D
:103B9000F07F03D3A0F2DF1149428DB23A2C01D35A
:103BA000123C00E0241DA4B2284404F10F01401E81
:103BB0008BB282B2214628460096FEF709FB4346A7
:103BC0003A46214628460096FEF782FB02B0BDEC3D
:103BD000028BBDE8F08100000C000020F0B58B42A4
:103BE00000D90B46002B43D0224FC82902D9C82147
:103BF000002401E0002403E027F81440641CA4B270
:103C00008C42F9D3002427E004F1010E25461FFA67
:103C10008EF613E037F816C000EBCC0C9CED010AD1
:103C200037F815C000EBCC0CDCED010AB4EEE00A6D
:103C3000F1EE10FA00DD3546761CB6B28E42E9D3BD
:103C4000A54207D037F814C037F8156027F814607C
:103C500027F815C01FFA8EF49C42D5D3002005E04A
:103C600037F8101022F81010401C80B29842F7D399
:103C7000F0BD00009C1B0020DFED100ADFED101AE4
:103C8000114A30EE601ADFED0F0A1049B0EE600AFB
:103C900001EE210A10EE100A904202DAB0EE600A3C
:103CA00005E010EE100A884201DD9FED090ABCEE26
:103CB000C00A10EE100A80B2704700000000A04257
:103CC00000009E4100003442000034420000DC430A
:103CD0000000DC430748B0EE081AD0ED020A70EE8F
:103CE000810AF4EEC00AF1EE10FA01D20120704709
:103CF000002070470C00002008B5FFF7B1FBFFF76C
:103D0000B7FB2C208DF800000121684600F078F9FF
:103D1000FFF7B6FB08BD38B50D46010A8DF8001057
:103D20008DF80100100A8DF802008DF803201C4662
:103D3000042269462A2000F01CF8280A8DF80000A9
:103D40008DF80150200A8DF802008DF803400422FE
:103D500069462B2000F00DF838BD01B5FFF780FB58
:103D6000FFF786FB0121684600F04AF9FFF770FB78
:103D700008BD70B514460D46FFF7EFFF002D0DD0BE
:103D8000002C0BD0FFF76CFBFFF77AFB214628468F
:103D900000F036F9BDE87040FFF75ABB70BD000077
:103DA0002DED028BFDF7FEFCFEF7DCFEFEF7C0FA00
:103DB000FEF720FB012210212C48FDF7DFFC00223A
:103DC0004FF400412A48FDF7D9FCFEF7CFFB294C00
:103DD0002078012801D1FEF7A3FE274E274F207837
:103DE00010B16078C0B11EE094ED018A18EE100A9F
:103DF000B04202DA9FED228A05E018EE100AB842BE
:103E000001DD9FED208A00F093F8F0EE400AB0EE5D
:103E1000480AFEF745FC24E0FEF782FEFDF7B4FCFD
:103E2000A06001206070FDF7AFFCA168884201D35B
:103E3000451A03E00025A060FEF772FE00EE105A5E
:103E4000B8EE400AFEF752FD43F69820854208D3AB
:103E50004FF4FA60FDF788FBFEF762FEFDF794FC75
:103E6000A0603220FDF780FBB9E7000000080240A7
:103E700000040240000000200000A0420000C842F0
:103E80000000A0420000C8421E4890ED011AB4EEA6
:103E9000C10AF1EE10FA01DDB0EE410AD0ED020ADE
:103EA000B4EEE00AF1EE10FA01D2B0EE600A71EE63
:103EB000600A154910EE900A884201DAF7EE000A0E
:103EC00031EE400ADFED111A124A134980EE201A32
:103ED000DFED0F0AB0EE600A01EE210A10EE100AC3
:103EE000904202DAB0EE600A05E010EE100A884255
:103EF00001DD9FED0A0ABCEEC00A10EE100A80B286
:103F0000704700000C0000200AD7233C00003E430D
:103F1000000018420000184200006443000064439F
:103F2000012291030148FDF729BC00000004024072
:103F300010B5FDF729FC4FF44871B0FBF1F201FB1D
:103F4000120000EE100A9FED231A2349B8EE400A32
:103F5000DFED231AC0EE010A9FED201A9FED210A22
:103F600010EE900A884204DA80EE812A02EE210ADD
:103F700010BD10EE900A1C49884208DA30EEC10AE2
:103F8000C0EE010ABAEE000A00EEE10A10BD10EE22
:103F9000900A1649DFED161A9FED161A884208DAC4
:103FA0009FED152A30EEC22AC2EE210A00EE810AE8
:103FB00010BD10EE900AB0F17C5FF9DA9FED0F0AA8
:103FC00030EEC00AC0EE210ABBEE090A00EEC10ABB
:103FD00010BD0000000048449A99193E9A99193E74
:103FE00000005042000070C29A99993ECDCCCC3E60
:103FF000CDCCCC3D00000C429A99993ECDCCCC3E24
:1040000010B500280DD000290BD00A4601466423C4
:104010000448FDF771FF002803D0BDE81040FDF70C
:10402000A0BA10BD30000020F0B5DFED492A002213
:104030009FED483ADFED483A484D494E494C46F22B
:10404000666743F234339FED481ADFF820C1B2EEC1
:104050000E4A44F2AE7EB2EE042A00BF00EE102AF1
:10406000F0EE430AB8EE400A40EE220AB0EE630AD0
:1040700010EE901A2944994212D8DFED3D1A70EEE5
:10408000E11A61EE821A61EEA14AF0EE411A44EEA5
:10409000C41AF4EEC01AF1EE10FA01DDB0EE610AB6
:1040A00010EE901A3144B94214D8B3EE095ADFED3C
:1040B000311A70EEE11A61EE821A61EEA14AFBEE4E
:1040C0000B1A44EEC51AF4EEC01AF1EE10FA01DD37
:1040D000B0EE610A10EE901A2144994212D8DFED39
:1040E000261A70EEE11A61EE821A61EEA14AF0EE34
:1040F000411A44EEC41AF4EEC01AF1EE10FA01DDD2
:10410000B0EE610A10EE901A6144714514D8B3EE16
:104110000E5ADFED1A1A70EEE11A61EE821A61EEA4
:10412000A14ADFED171A44EEC51AF4EEC01AF1EEFB
:1041300010FA01DDB0EE610A00EBC201521CC1EDC4
:10414000000A92B281ED010AC82A87D3F0BD0000AF
:1041500043D4CD3D0000A042000070C29A194BBD6F
:1041600033334CBD9A194DBD00001CC2D72342BD4C
:104170000000B5420000B4420000B3420000BE425D
:1041800000000CC210B500290AD00878002807D01A
:1041900005487844FCF7D4FD002801D0002010BD6C
:1041A0000248784410BD00003E09000036090000B6
:1041B0000808A0F500114FEA3101704743004FEAAB
:1041C000D30C4FEA3C0C43401FBF40070CF1605139
:1041D00013F0FE4F70471CF0006F03D100200CF06D
:1041E000004170470CF0004343EA507010B540EABC
:1041F000CC0000F00EF800BF000000924FEA000172
:10420000FFF7D6BF4FF000414FF00000A1F50021AD
:1042100070470EF1020E2EF0030E5EF8044B24429E
:1042200004D44FEA4102B2F17F4F11D84FEA400364
:10423000B3F17F4F0CD80ED14FEAD07CB2F17F4F53
:104240000CEB4C0C0CF1020C08BF4CEBD17C04E0E5
:104250004FF0080C01E04FEAD17C0CEB4C0324FA40
:1042600003F404F00704B4F1040C06D20EEB840C42
:10427000BDE810404CF0010C6047DFE80CF0070887
:1042800002024FF00040A0F5800010BD0846420039
:1042900018BFD2F1807288BF00F0004010BD4FF00F
:1042A0004070E1EE100A7047FCF7C3BAC396EC0504
:1042B00001C606A7183C69408A00002919A53300E9
:1042C00000000000000000000000000000000000EE
:1042D0000018181818181818001818000000000006
:1042E000006C6C6C0000000000000000000000008A
:1042F000000024247E2424247E24240000000000C6
:10430000083E4948380E0909493E080000000000EF
:104310000061929468081629498600000000000098
:10432000001C222214081522221D0000000000009B
:104330000018181800000000000000000000000035
:10434000000C10202020202020100C000000000075
:1043500000300804040404040408300000000000D5
:10436000000008492A1C2A4908000000000000003B
:104370000000000808087F0808080000000000008E
:1043800000000000000000001818081000000000E5
:104390000000000000003C000000000000000000E1
:1043A00000000000000000000018180000000000DD
:1043B0000002040408081010202040000000000043
:1043C000003C42464A526242423C0000000000006B
:1043D0000008182808080808083E0000000000002F
:1043E000003C420204081020407E00000000000053
:1043F000003C4202021C0202423C0000000000009D
:1044000000040C1424447E04040400000000000096
:10441000007E40407C020202423C0000000000009E
:10442000001C20407C424242423C00000000000050
:10443000007E0204081010101010000000000000A0
:10444000003C4242423C4242423C0000000000002C
:10445000003C4242423E02020438000000000000DC
:1044600000000018180000001818000000000000EC
:1044700000000018180000001818081000000000C4
:1044800000000204081020100804020000000000D0
:10449000000000007E00007E000000000000000020
:1044A0000000402010080408102040000000000018
:1044B000003C420204081010001010000000000030
:1044C000003C42424E52564A403C00000000000070
:1044D0000018244242427E42424200000000000096
:1044E000007C4242427C4242427C000000000000CC
:1044F000003C424040404040423C00000000000080
:1045000000784442424242424478000000000000E9
:10451000007E4040407C4040407E000000000000A3
:10452000007E4040407C40404040000000000000D1
:10453000003C4240404E4242423C0000000000002D
:1045400000424242427E42424242000000000000DD
:10455000003E080808080808083E000000000000A7
:10456000000F020202020242423C00000000000072
:10457000004244485060504844420000000000009F
:104580000040404040404040407E000000000000AD
:104590000042665A5A424242424200000000000075
:1045A000004262524A46424242420000000000007D
:1045B000003C424242424242423C000000000000B5
:1045C000007C4242427C404040400000000000002D
:1045D000003C42424242424A443A0000000000008D
:1045E000007C4242427C50484442000000000000EF
:1045F000003C4240300C0202423C0000000000003F
:10460000007F0808080808080808000000000000EB
:104610000042424242424242423C0000000000004E
:1046200000424242422424181818000000000000F2
:10463000004141414949494955220000000000001C
:1046400000424224181818244242000000000000D2
:10465000004141221408080808080000000000007A
:10466000007E020408102040407E00000000000090
:10467000003C20202020202020203C0000000000C2
:104680000040202010100808040402000000000070
:10469000003C04040404040404043C000000000082
:1046A000001028440000000000000000000000008E
:1046B00000000000000000000000007E000000007C
:1046C00000201008000000000000000000000000B2
:1046D000000000003C023E42423E0000000000009C
:1046E000004040407C424242427C0000000000000A
:1046F000000000003C424040423C0000000000003E
:10470000000202023E424242423E0000000000001F
:10471000000000003C427E40423C000000000000DF
:10472000000C12107C10101010100000000000008F
:10473000000000003E4242423E02423C00000000B7
:10474000004040407C4242424242000000000000E3
:104750000008000018080808083E000000000000DB
:10476000000400000C040404044444380000000069
:1047700000404042444870484442000000000000AD
:104780000018080808080808083E0000000000009B
:104790000000000076494949494900000000000036
:1047A000000000007C424242424200000000000043
:1047B000000000003C424242423C00000000000079
:1047C000000000007C424242427C40404000000029
:1047D000000000003E424242423E0202020000004F
:1047E000000000005C62404040400000000000000B
:1047F000000000003E403C02423C0000000000007F
:10480000001010107C101010120C000000000000AE
:104810000000000042424242423E00000000000010
:104820000000000042424224241800000000000062
:1048300000000000414149494936000000000000E5
:10484000000000004224181824420000000000006C
:1048500000000000424242423E02043800000000D4
:10486000000000007E040810207E00000000000010
:10487000000E10101060101010100E00000000004C
:1048800000080808080808080808080000000000D8
:1048900000700808080608080808700000000000FA
:1048A000000000000031494600000000000000F058
:1048B000090B0604152F54423C1714181BE0090B72
:1048C0000604032B43423B1614171B000000000094
:1048D00000000001020304060708090000000000B0
:1048E000000000000000B33FB2BE7D3A00002E4041
:1048F000DFCF513800007E40BF51FABA00E0A4403B
:1049000019DAC3BA00E0C840C2ED8AB90040EB40F2
:10491000CD1F2CBA001006412AFFFABA00C015417B
:10492000DFCFD13700D024419A97703A00503341FD
:1049300089478E3600404141E75B9D3800B04E41CB
:10494000C00A98B900A05B41558F943A0030684185
:10495000DA92C0BA0040744162B3C63A0000803FA8
:1049600000A0853F00908B3F00C0913F0030983FF2
:1049700000F09E3F00F0A53F0050AD3F0000B53F66
:104980000000BD3F0060C53F0020CE3F0040D73F44
:1049900000C0E03F00C0EA3F0020F53F00000000FB
:1049A0007D36AC397D3C3839EBDCF438320A7E395F
:1049B000124C26399B6AED39A4EE83397F661E3985
:1049C000F6398A392B426539A48211395B991F392E
:1049D000C3EECD39DDE7C637A5A22F390000803FF1
:1049E000C3AA853FC2958B3FD3C3913FF037983F11
:1049F00032F59E3FD7FEA53F3F58AD3FF304B53F8C
:104A0000A408BD3F2A67C53F8C24CE3FFD44D73F55
:104A1000DFCCE03FC7C0EA3F7D25F53F0240000004
:104A2000000000A00000000005400000000000C8D9
:104A3000000000000C4000000000409C000000004E
:104A4000194000000020BCBE0000000034400000FF
:104A5000BFC91B8E00000004B5400000504BCFD0F2
:104A60006607E2CF010000006C4100003E8251AABF
:104A7000DFEEA73401000000D9420000DCB5A0E25F
:104A80003A301F97FFFFFFFFB4450000FD25A0C887
:104A9000E9A3C14FFFFFFFFFFF3F000000000080C0
:104AA00000000000FF3F0000000000800000000048
:104AB000EC4A00080000002030000000C40100089B
:104AC0001C4B00083000002060230000E0010008BB
:104AD0001C00000043000000F8FFFFFF0C00000076
:104AE0000E0000000F0000002E000000010000007A
:104AF0000000B442000000000000000000000000C0
:104B000000000000000000000000000001000000A4
:0C4B100010000000000000000024F40071
:040000050800018965
:00000001FF
